{
  "address": "0xb5d8887AB09AdB5983AACEed4e1AbB9267407823",
  "abi": [
    {
      "inputs": [
        {
          "internalType": "uint256",
          "name": "cap",
          "type": "uint256"
        }
      ],
      "stateMutability": "nonpayable",
      "type": "constructor"
    },
    {
      "inputs": [
        {
          "internalType": "uint256",
          "name": "increasedSupply",
          "type": "uint256"
        },
        {
          "internalType": "uint256",
          "name": "cap",
          "type": "uint256"
        }
      ],
      "name": "ERC20ExceededCap",
      "type": "error"
    },
    {
      "inputs": [
        {
          "internalType": "address",
          "name": "spender",
          "type": "address"
        },
        {
          "internalType": "uint256",
          "name": "allowance",
          "type": "uint256"
        },
        {
          "internalType": "uint256",
          "name": "needed",
          "type": "uint256"
        }
      ],
      "name": "ERC20InsufficientAllowance",
      "type": "error"
    },
    {
      "inputs": [
        {
          "internalType": "address",
          "name": "sender",
          "type": "address"
        },
        {
          "internalType": "uint256",
          "name": "balance",
          "type": "uint256"
        },
        {
          "internalType": "uint256",
          "name": "needed",
          "type": "uint256"
        }
      ],
      "name": "ERC20InsufficientBalance",
      "type": "error"
    },
    {
      "inputs": [
        {
          "internalType": "address",
          "name": "approver",
          "type": "address"
        }
      ],
      "name": "ERC20InvalidApprover",
      "type": "error"
    },
    {
      "inputs": [
        {
          "internalType": "uint256",
          "name": "cap",
          "type": "uint256"
        }
      ],
      "name": "ERC20InvalidCap",
      "type": "error"
    },
    {
      "inputs": [
        {
          "internalType": "address",
          "name": "receiver",
          "type": "address"
        }
      ],
      "name": "ERC20InvalidReceiver",
      "type": "error"
    },
    {
      "inputs": [
        {
          "internalType": "address",
          "name": "sender",
          "type": "address"
        }
      ],
      "name": "ERC20InvalidSender",
      "type": "error"
    },
    {
      "inputs": [
        {
          "internalType": "address",
          "name": "spender",
          "type": "address"
        }
      ],
      "name": "ERC20InvalidSpender",
      "type": "error"
    },
    {
      "anonymous": false,
      "inputs": [
        {
          "indexed": true,
          "internalType": "address",
          "name": "owner",
          "type": "address"
        },
        {
          "indexed": true,
          "internalType": "address",
          "name": "spender",
          "type": "address"
        },
        {
          "indexed": false,
          "internalType": "uint256",
          "name": "value",
          "type": "uint256"
        }
      ],
      "name": "Approval",
      "type": "event"
    },
    {
      "anonymous": false,
      "inputs": [
        {
          "indexed": true,
          "internalType": "address",
          "name": "to",
          "type": "address"
        },
        {
          "indexed": false,
          "internalType": "uint256",
          "name": "amount",
          "type": "uint256"
        }
      ],
      "name": "Minted",
      "type": "event"
    },
    {
      "anonymous": false,
      "inputs": [
        {
          "indexed": true,
          "internalType": "address",
          "name": "oldOwner",
          "type": "address"
        },
        {
          "indexed": true,
          "internalType": "address",
          "name": "newOwner",
          "type": "address"
        }
      ],
      "name": "OwnershipTransferred",
      "type": "event"
    },
    {
      "anonymous": false,
      "inputs": [
        {
          "indexed": true,
          "internalType": "address",
          "name": "from",
          "type": "address"
        },
        {
          "indexed": true,
          "internalType": "address",
          "name": "to",
          "type": "address"
        },
        {
          "indexed": false,
          "internalType": "uint256",
          "name": "value",
          "type": "uint256"
        }
      ],
      "name": "Transfer",
      "type": "event"
    },
    {
      "inputs": [
        {
          "internalType": "address",
          "name": "owner",
          "type": "address"
        },
        {
          "internalType": "address",
          "name": "spender",
          "type": "address"
        }
      ],
      "name": "allowance",
      "outputs": [
        {
          "internalType": "uint256",
          "name": "",
          "type": "uint256"
        }
      ],
      "stateMutability": "view",
      "type": "function"
    },
    {
      "inputs": [
        {
          "internalType": "address",
          "name": "spender",
          "type": "address"
        },
        {
          "internalType": "uint256",
          "name": "value",
          "type": "uint256"
        }
      ],
      "name": "approve",
      "outputs": [
        {
          "internalType": "bool",
          "name": "",
          "type": "bool"
        }
      ],
      "stateMutability": "nonpayable",
      "type": "function"
    },
    {
      "inputs": [
        {
          "internalType": "address",
          "name": "account",
          "type": "address"
        }
      ],
      "name": "balanceOf",
      "outputs": [
        {
          "internalType": "uint256",
          "name": "",
          "type": "uint256"
        }
      ],
      "stateMutability": "view",
      "type": "function"
    },
    {
      "inputs": [],
      "name": "cap",
      "outputs": [
        {
          "internalType": "uint256",
          "name": "",
          "type": "uint256"
        }
      ],
      "stateMutability": "view",
      "type": "function"
    },
    {
      "inputs": [],
      "name": "decimals",
      "outputs": [
        {
          "internalType": "uint8",
          "name": "",
          "type": "uint8"
        }
      ],
      "stateMutability": "view",
      "type": "function"
    },
    {
      "inputs": [
        {
          "internalType": "uint256",
          "name": "amount",
          "type": "uint256"
        }
      ],
      "name": "mint",
      "outputs": [],
      "stateMutability": "nonpayable",
      "type": "function"
    },
    {
      "inputs": [
        {
          "internalType": "address",
          "name": "recipient",
          "type": "address"
        },
        {
          "internalType": "uint256",
          "name": "amount",
          "type": "uint256"
        }
      ],
      "name": "mintTo",
      "outputs": [],
      "stateMutability": "nonpayable",
      "type": "function"
    },
    {
      "inputs": [],
      "name": "name",
      "outputs": [
        {
          "internalType": "string",
          "name": "",
          "type": "string"
        }
      ],
      "stateMutability": "view",
      "type": "function"
    },
    {
      "inputs": [],
      "name": "owner",
      "outputs": [
        {
          "internalType": "address",
          "name": "",
          "type": "address"
        }
      ],
      "stateMutability": "view",
      "type": "function"
    },
    {
      "inputs": [],
      "name": "symbol",
      "outputs": [
        {
          "internalType": "string",
          "name": "",
          "type": "string"
        }
      ],
      "stateMutability": "view",
      "type": "function"
    },
    {
      "inputs": [],
      "name": "totalSupply",
      "outputs": [
        {
          "internalType": "uint256",
          "name": "",
          "type": "uint256"
        }
      ],
      "stateMutability": "view",
      "type": "function"
    },
    {
      "inputs": [
        {
          "internalType": "address",
          "name": "to",
          "type": "address"
        },
        {
          "internalType": "uint256",
          "name": "value",
          "type": "uint256"
        }
      ],
      "name": "transfer",
      "outputs": [
        {
          "internalType": "bool",
          "name": "",
          "type": "bool"
        }
      ],
      "stateMutability": "nonpayable",
      "type": "function"
    },
    {
      "inputs": [
        {
          "internalType": "address",
          "name": "from",
          "type": "address"
        },
        {
          "internalType": "address",
          "name": "to",
          "type": "address"
        },
        {
          "internalType": "uint256",
          "name": "value",
          "type": "uint256"
        }
      ],
      "name": "transferFrom",
      "outputs": [
        {
          "internalType": "bool",
          "name": "",
          "type": "bool"
        }
      ],
      "stateMutability": "nonpayable",
      "type": "function"
    },
    {
      "inputs": [
        {
          "internalType": "address",
          "name": "newOwner",
          "type": "address"
        }
      ],
      "name": "transferOwnership",
      "outputs": [],
      "stateMutability": "nonpayable",
      "type": "function"
    }
  ],
  "transactionHash": "0x214a50865c5fd59238d276af24f496e48f86c478ee1b6027fa60a142be954475",
  "args": [
    100000000
  ],
  "numDeployments": 1,
  "solcInputHash": "40319dcab58099d8a79d32f8e8d87a45",
  "bytecode": "0x60a06040523480156200001157600080fd5b50604051620012a2380380620012a28339810160408190526200003491620003cb565b620000426012600a620004fa565b6200004e908262000512565b6040518060400160405280600a815260200169416c70683420436f726560b01b8152506040518060400160405280600581526020016443c398524560d81b8152508160039081620000a09190620005d0565b506004620000af8282620005d0565b50505080600003620000dc5760405163392e1e2760e01b8152600060048201526024015b60405180910390fd5b6080526302faf080811015620001445760405162461bcd60e51b815260206004820152602660248201527f436170206d757374206265206174206c65617374203530206d696c6c696f6e20604482015265746f6b656e7360d01b6064820152608401620000d3565b600580546001600160a01b031916339081179091556200018a9062000167601290565b6200017490600a620004fa565b62000184906302faf08062000512565b620001ed565b6005546001600160a01b03167f30385c845b448a36257a6a1716e6ad2e1bc2cbe333cde1e69fe849ad6511adfe620001c56012600a620004fa565b620001d5906302faf08062000512565b60405190815260200160405180910390a250620006b2565b6001600160a01b038216620002195760405163ec442f0560e01b815260006004820152602401620000d3565b62000227600083836200022b565b5050565b6200023883838362000298565b6001600160a01b038316620002935760006200025360805190565b905060006200026160025490565b905081811115620002905760405163279e7e1560e21b81526004810182905260248101839052604401620000d3565b50505b505050565b6001600160a01b038316620002c7578060026000828254620002bb91906200069c565b909155506200033b9050565b6001600160a01b038316600090815260208190526040902054818110156200031c5760405163391434e360e21b81526001600160a01b03851660048201526024810182905260448101839052606401620000d3565b6001600160a01b03841660009081526020819052604090209082900390555b6001600160a01b038216620003595760028054829003905562000378565b6001600160a01b03821660009081526020819052604090208054820190555b816001600160a01b0316836001600160a01b03167fddf252ad1be2c89b69c2b068fc378daa952ba7f163c4a11628f55a4df523b3ef83604051620003be91815260200190565b60405180910390a3505050565b600060208284031215620003de57600080fd5b5051919050565b634e487b7160e01b600052601160045260246000fd5b600181815b808511156200043c578160001904821115620004205762000420620003e5565b808516156200042e57918102915b93841c939080029062000400565b509250929050565b6000826200045557506001620004f4565b816200046457506000620004f4565b81600181146200047d57600281146200048857620004a8565b6001915050620004f4565b60ff8411156200049c576200049c620003e5565b50506001821b620004f4565b5060208310610133831016604e8410600b8410161715620004cd575081810a620004f4565b620004d98383620003fb565b8060001904821115620004f057620004f0620003e5565b0290505b92915050565b60006200050b60ff84168362000444565b9392505050565b8082028115828204841417620004f457620004f4620003e5565b634e487b7160e01b600052604160045260246000fd5b600181811c908216806200055757607f821691505b6020821081036200057857634e487b7160e01b600052602260045260246000fd5b50919050565b601f8211156200029357600081815260208120601f850160051c81016020861015620005a75750805b601f850160051c820191505b81811015620005c857828155600101620005b3565b505050505050565b81516001600160401b03811115620005ec57620005ec6200052c565b6200060481620005fd845462000542565b846200057e565b602080601f8311600181146200063c5760008415620006235750858301515b600019600386901b1c1916600185901b178555620005c8565b600085815260208120601f198616915b828110156200066d578886015182559484019460019091019084016200064c565b50858210156200068c5787850151600019600388901b60f8161c191681555b5050505050600190811b01905550565b80820180821115620004f457620004f4620003e5565b608051610bbf620006e360003960008181610166015281816103720152818161046e01526108330152610bbf6000f3fe608060405234801561001057600080fd5b50600436106100ea5760003560e01c806370a082311161008c578063a0712d6811610066578063a0712d68146101fb578063a9059cbb1461020e578063dd62ed3e14610221578063f2fde38b1461025a57600080fd5b806370a082311461019f5780638da5cb5b146101c857806395d89b41146101f357600080fd5b806323b872dd116100c857806323b872dd14610142578063313ce56714610155578063355274ea14610164578063449a52f81461018a57600080fd5b806306fdde03146100ef578063095ea7b31461010d57806318160ddd14610130575b600080fd5b6100f761026d565b60405161010491906109af565b60405180910390f35b61012061011b366004610a19565b6102ff565b6040519015158152602001610104565b6002545b604051908152602001610104565b610120610150366004610a43565b610319565b60405160128152602001610104565b7f0000000000000000000000000000000000000000000000000000000000000000610134565b61019d610198366004610a19565b61033d565b005b6101346101ad366004610a7f565b6001600160a01b031660009081526020819052604090205490565b6005546101db906001600160a01b031681565b6040516001600160a01b039091168152602001610104565b6100f7610433565b61019d610209366004610aa1565b610442565b61012061021c366004610a19565b610539565b61013461022f366004610aba565b6001600160a01b03918216600090815260016020908152604080832093909416825291909152205490565b61019d610268366004610a7f565b610547565b60606003805461027c90610aed565b80601f01602080910402602001604051908101604052809291908181526020018280546102a890610aed565b80156102f55780601f106102ca576101008083540402835291602001916102f5565b820191906000526020600020905b8154815290600101906020018083116102d857829003601f168201915b5050505050905090565b60003361030d818585610617565b60019150505b92915050565b600033610327858285610629565b6103328585856106a7565b506001949350505050565b6005546001600160a01b031633146103705760405162461bcd60e51b815260040161036790610b27565b60405180910390fd5b7f00000000000000000000000000000000000000000000000000000000000000008161039b60025490565b6103a59190610b68565b11156103e25760405162461bcd60e51b815260206004820152600c60248201526b10d85c08195e18d95959195960a21b6044820152606401610367565b6103ec8282610706565b816001600160a01b03167f30385c845b448a36257a6a1716e6ad2e1bc2cbe333cde1e69fe849ad6511adfe8260405161042791815260200190565b60405180910390a25050565b60606004805461027c90610aed565b6005546001600160a01b0316331461046c5760405162461bcd60e51b815260040161036790610b27565b7f00000000000000000000000000000000000000000000000000000000000000008161049760025490565b6104a19190610b68565b11156104de5760405162461bcd60e51b815260206004820152600c60248201526b10d85c08195e18d95959195960a21b6044820152606401610367565b6005546104f4906001600160a01b031682610706565b6005546040518281526001600160a01b03909116907f30385c845b448a36257a6a1716e6ad2e1bc2cbe333cde1e69fe849ad6511adfe9060200160405180910390a250565b60003361030d8185856106a7565b6005546001600160a01b031633146105715760405162461bcd60e51b815260040161036790610b27565b6001600160a01b0381166105bb5760405162461bcd60e51b815260206004820152601160248201527024b73b30b634b2103732bb9037bbb732b960791b6044820152606401610367565b6005546040516001600160a01b038084169216907f8be0079c531659141344cd1fd0a4f28419497f9722a3daafe3b4186f6b6457e090600090a3600580546001600160a01b0319166001600160a01b0392909216919091179055565b6106248383836001610740565b505050565b6001600160a01b0383811660009081526001602090815260408083209386168352929052205460001981146106a1578181101561069257604051637dc7a0d960e11b81526001600160a01b03841660048201526024810182905260448101839052606401610367565b6106a184848484036000610740565b50505050565b6001600160a01b0383166106d157604051634b637e8f60e11b815260006004820152602401610367565b6001600160a01b0382166106fb5760405163ec442f0560e01b815260006004820152602401610367565b610624838383610815565b6001600160a01b0382166107305760405163ec442f0560e01b815260006004820152602401610367565b61073c60008383610815565b5050565b6001600160a01b03841661076a5760405163e602df0560e01b815260006004820152602401610367565b6001600160a01b03831661079457604051634a1406b160e11b815260006004820152602401610367565b6001600160a01b03808516600090815260016020908152604080832093871683529290522082905580156106a157826001600160a01b0316846001600160a01b03167f8c5be1e5ebec7d5bd14f71427d1e84f3dd0314c0f7b2291e5b200ac8c7c3b9258460405161080791815260200190565b60405180910390a350505050565b610820838383610885565b6001600160a01b038316610624576002547f0000000000000000000000000000000000000000000000000000000000000000908181111561087e5760405163279e7e1560e21b81526004810182905260248101839052604401610367565b5050505050565b6001600160a01b0383166108b05780600260008282546108a59190610b68565b909155506109229050565b6001600160a01b038316600090815260208190526040902054818110156109035760405163391434e360e21b81526001600160a01b03851660048201526024810182905260448101839052606401610367565b6001600160a01b03841660009081526020819052604090209082900390555b6001600160a01b03821661093e5760028054829003905561095d565b6001600160a01b03821660009081526020819052604090208054820190555b816001600160a01b0316836001600160a01b03167fddf252ad1be2c89b69c2b068fc378daa952ba7f163c4a11628f55a4df523b3ef836040516109a291815260200190565b60405180910390a3505050565b600060208083528351808285015260005b818110156109dc578581018301518582016040015282016109c0565b506000604082860101526040601f19601f8301168501019250505092915050565b80356001600160a01b0381168114610a1457600080fd5b919050565b60008060408385031215610a2c57600080fd5b610a35836109fd565b946020939093013593505050565b600080600060608486031215610a5857600080fd5b610a61846109fd565b9250610a6f602085016109fd565b9150604084013590509250925092565b600060208284031215610a9157600080fd5b610a9a826109fd565b9392505050565b600060208284031215610ab357600080fd5b5035919050565b60008060408385031215610acd57600080fd5b610ad6836109fd565b9150610ae4602084016109fd565b90509250929050565b600181811c90821680610b0157607f821691505b602082108103610b2157634e487b7160e01b600052602260045260246000fd5b50919050565b60208082526021908201527f4f6e6c79206f776e65722063616e2063616c6c20746869732066756e6374696f6040820152603760f91b606082015260800190565b8082018082111561031357634e487b7160e01b600052601160045260246000fdfea264697066735822122053ad74d4282a7f93feab801383f61ae2e8163b2493f8d089a2d156e7cf6bc48364736f6c63430008140033",
  "devdoc": {
    "errors": {
      "ERC20ExceededCap(uint256,uint256)": [
        {
          "details": "Total supply cap has been exceeded."
        }
      ],
      "ERC20InsufficientAllowance(address,uint256,uint256)": [
        {
          "details": "Indicates a failure with the `spender`s `allowance`. Used in transfers.",
          "params": {
            "allowance": "Amount of tokens a `spender` is allowed to operate with.",
            "needed": "Minimum amount required to perform a transfer.",
            "spender": "Address that may be allowed to operate on tokens without being their owner."
          }
        }
      ],
      "ERC20InsufficientBalance(address,uint256,uint256)": [
        {
          "details": "Indicates an error related to the current `balance` of a `sender`. Used in transfers.",
          "params": {
            "balance": "Current balance for the interacting account.",
            "needed": "Minimum amount required to perform a transfer.",
            "sender": "Address whose tokens are being transferred."
          }
        }
      ],
      "ERC20InvalidApprover(address)": [
        {
          "details": "Indicates a failure with the `approver` of a token to be approved. Used in approvals.",
          "params": {
            "approver": "Address initiating an approval operation."
          }
        }
      ],
      "ERC20InvalidCap(uint256)": [
        {
          "details": "The supplied cap is not a valid cap."
        }
      ],
      "ERC20InvalidReceiver(address)": [
        {
          "details": "Indicates a failure with the token `receiver`. Used in transfers.",
          "params": {
            "receiver": "Address to which tokens are being transferred."
          }
        }
      ],
      "ERC20InvalidSender(address)": [
        {
          "details": "Indicates a failure with the token `sender`. Used in transfers.",
          "params": {
            "sender": "Address whose tokens are being transferred."
          }
        }
      ],
      "ERC20InvalidSpender(address)": [
        {
          "details": "Indicates a failure with the `spender` to be approved. Used in approvals.",
          "params": {
            "spender": "Address that may be allowed to operate on tokens without being their owner."
          }
        }
      ]
    },
    "events": {
      "Approval(address,address,uint256)": {
        "details": "Emitted when the allowance of a `spender` for an `owner` is set by a call to {approve}. `value` is the new allowance."
      },
      "Transfer(address,address,uint256)": {
        "details": "Emitted when `value` tokens are moved from one account (`from`) to another (`to`). Note that `value` may be zero."
      }
    },
    "kind": "dev",
    "methods": {
      "allowance(address,address)": {
        "details": "See {IERC20-allowance}."
      },
      "approve(address,uint256)": {
        "details": "See {IERC20-approve}. NOTE: If `value` is the maximum `uint256`, the allowance is not updated on `transferFrom`. This is semantically equivalent to an infinite approval. Requirements: - `spender` cannot be the zero address."
      },
      "balanceOf(address)": {
        "details": "See {IERC20-balanceOf}."
      },
      "cap()": {
        "details": "Returns the cap on the token's total supply."
      },
      "decimals()": {
        "details": "Returns the number of decimals used to get its user representation. For example, if `decimals` equals `2`, a balance of `505` tokens should be displayed to a user as `5.05` (`505 / 10 ** 2`). Tokens usually opt for a value of 18, imitating the relationship between Ether and Wei. This is the default value returned by this function, unless it's overridden. NOTE: This information is only used for _display_ purposes: it in no way affects any of the arithmetic of the contract, including {IERC20-balanceOf} and {IERC20-transfer}."
      },
      "name()": {
        "details": "Returns the name of the token."
      },
      "symbol()": {
        "details": "Returns the symbol of the token, usually a shorter version of the name."
      },
      "totalSupply()": {
        "details": "See {IERC20-totalSupply}."
      },
      "transfer(address,uint256)": {
        "details": "See {IERC20-transfer}. Requirements: - `to` cannot be the zero address. - the caller must have a balance of at least `value`."
      },
      "transferFrom(address,address,uint256)": {
        "details": "See {IERC20-transferFrom}. Emits an {Approval} event indicating the updated allowance. This is not required by the EIP. See the note at the beginning of {ERC20}. NOTE: Does not update the allowance if the current allowance is the maximum `uint256`. Requirements: - `from` and `to` cannot be the zero address. - `from` must have a balance of at least `value`. - the caller must have allowance for ``from``'s tokens of at least `value`."
      }
    },
    "version": 1
  },
  "userdoc": {
    "kind": "user",
    "methods": {},
    "version": 1
  },
  "storageLayout": {
    "storage": [
      {
        "astId": 668,
        "contract": "contracts/Token.sol:Alph4Core",
        "label": "_balances",
        "offset": 0,
        "slot": "0",
        "type": "t_mapping(t_address,t_uint256)"
      },
      {
        "astId": 674,
        "contract": "contracts/Token.sol:Alph4Core",
        "label": "_allowances",
        "offset": 0,
        "slot": "1",
        "type": "t_mapping(t_address,t_mapping(t_address,t_uint256))"
      },
      {
        "astId": 676,
        "contract": "contracts/Token.sol:Alph4Core",
        "label": "_totalSupply",
        "offset": 0,
        "slot": "2",
        "type": "t_uint256"
      },
      {
        "astId": 678,
        "contract": "contracts/Token.sol:Alph4Core",
        "label": "_name",
        "offset": 0,
        "slot": "3",
        "type": "t_string_storage"
      },
      {
        "astId": 680,
        "contract": "contracts/Token.sol:Alph4Core",
        "label": "_symbol",
        "offset": 0,
        "slot": "4",
        "type": "t_string_storage"
      },
      {
        "astId": 2458,
        "contract": "contracts/Token.sol:Alph4Core",
        "label": "owner",
        "offset": 0,
        "slot": "5",
        "type": "t_address"
      }
    ],
    "types": {
      "t_address": {
        "encoding": "inplace",
        "label": "address",
        "numberOfBytes": "20"
      },
      "t_mapping(t_address,t_mapping(t_address,t_uint256))": {
        "encoding": "mapping",
        "key": "t_address",
        "label": "mapping(address => mapping(address => uint256))",
        "numberOfBytes": "32",
        "value": "t_mapping(t_address,t_uint256)"
      },
      "t_mapping(t_address,t_uint256)": {
        "encoding": "mapping",
        "key": "t_address",
        "label": "mapping(address => uint256)",
        "numberOfBytes": "32",
        "value": "t_uint256"
      },
      "t_string_storage": {
        "encoding": "bytes",
        "label": "string",
        "numberOfBytes": "32"
      },
      "t_uint256": {
        "encoding": "inplace",
        "label": "uint256",
        "numberOfBytes": "32"
      }
    }
  }
}