{
  "address": "0xB58F86062870886D1037A82E374B5710A9c2b328",
  "abi": [
    {
      "inputs": [
        {
          "internalType": "address",
          "name": "_registry",
          "type": "address"
        },
        {
          "internalType": "bytes32",
          "name": "_parentNode",
          "type": "bytes32"
        },
        {
          "internalType": "string",
          "name": "_baseDomain",
          "type": "string"
        }
      ],
      "stateMutability": "nonpayable",
      "type": "constructor"
    },
    {
      "inputs": [
        {
          "internalType": "address",
          "name": "owner",
          "type": "address"
        }
      ],
      "name": "OwnableInvalidOwner",
      "type": "error"
    },
    {
      "inputs": [
        {
          "internalType": "address",
          "name": "account",
          "type": "address"
        }
      ],
      "name": "OwnableUnauthorizedAccount",
      "type": "error"
    },
    {
      "anonymous": false,
      "inputs": [
        {
          "indexed": true,
          "internalType": "address",
          "name": "previousOwner",
          "type": "address"
        },
        {
          "indexed": true,
          "internalType": "address",
          "name": "newOwner",
          "type": "address"
        }
      ],
      "name": "OwnershipTransferred",
      "type": "event"
    },
    {
      "anonymous": false,
      "inputs": [
        {
          "indexed": true,
          "internalType": "address",
          "name": "user",
          "type": "address"
        },
        {
          "indexed": false,
          "internalType": "string",
          "name": "subname",
          "type": "string"
        }
      ],
      "name": "SubnameRegistered",
      "type": "event"
    },
    {
      "inputs": [
        {
          "internalType": "address",
          "name": "",
          "type": "address"
        }
      ],
      "name": "addressToSubname",
      "outputs": [
        {
          "internalType": "string",
          "name": "",
          "type": "string"
        }
      ],
      "stateMutability": "view",
      "type": "function"
    },
    {
      "inputs": [],
      "name": "baseDomain",
      "outputs": [
        {
          "internalType": "string",
          "name": "",
          "type": "string"
        }
      ],
      "stateMutability": "view",
      "type": "function"
    },
    {
      "inputs": [
        {
          "internalType": "address",
          "name": "user",
          "type": "address"
        }
      ],
      "name": "getFullName",
      "outputs": [
        {
          "internalType": "string",
          "name": "",
          "type": "string"
        }
      ],
      "stateMutability": "view",
      "type": "function"
    },
    {
      "inputs": [
        {
          "internalType": "string",
          "name": "name",
          "type": "string"
        }
      ],
      "name": "isAvailable",
      "outputs": [
        {
          "internalType": "bool",
          "name": "",
          "type": "bool"
        }
      ],
      "stateMutability": "view",
      "type": "function"
    },
    {
      "inputs": [],
      "name": "owner",
      "outputs": [
        {
          "internalType": "address",
          "name": "",
          "type": "address"
        }
      ],
      "stateMutability": "view",
      "type": "function"
    },
    {
      "inputs": [],
      "name": "parentNode",
      "outputs": [
        {
          "internalType": "bytes32",
          "name": "",
          "type": "bytes32"
        }
      ],
      "stateMutability": "view",
      "type": "function"
    },
    {
      "inputs": [
        {
          "internalType": "string",
          "name": "name",
          "type": "string"
        }
      ],
      "name": "registerSubname",
      "outputs": [
        {
          "internalType": "string",
          "name": "",
          "type": "string"
        }
      ],
      "stateMutability": "nonpayable",
      "type": "function"
    },
    {
      "inputs": [],
      "name": "registry",
      "outputs": [
        {
          "internalType": "contract IL2Registry",
          "name": "",
          "type": "address"
        }
      ],
      "stateMutability": "view",
      "type": "function"
    },
    {
      "inputs": [],
      "name": "renounceOwnership",
      "outputs": [],
      "stateMutability": "nonpayable",
      "type": "function"
    },
    {
      "inputs": [
        {
          "internalType": "string",
          "name": "",
          "type": "string"
        }
      ],
      "name": "subnameOwners",
      "outputs": [
        {
          "internalType": "address",
          "name": "",
          "type": "address"
        }
      ],
      "stateMutability": "view",
      "type": "function"
    },
    {
      "inputs": [
        {
          "internalType": "address",
          "name": "newOwner",
          "type": "address"
        }
      ],
      "name": "transferOwnership",
      "outputs": [],
      "stateMutability": "nonpayable",
      "type": "function"
    }
  ],
  "transactionHash": "0x88a6e28c08690008d7746bcc5a7e4d283ec6af68ee77ddfd1b5d162b9a4a77d8",
  "args": [
    "0xd42Cb8E3C9F2B842123F56428D37aA7943d39956",
    "0x34757eebad96a8f60df032417ebd6c6bd51c478b657c70c17c537073fe85c388",
    "hirex.base.eth"
  ],
  "numDeployments": 1,
  "solcInputHash": "4cec168155d89587665fbbddddbbd807",
  "bytecode": "0x60806040523480156200001157600080fd5b5060405162000ea238038062000ea2833981016040819052620000349162000105565b33806200005b57604051631e4fbdf760e01b81526000600482015260240160405180910390fd5b62000066816200009f565b50600180546001600160a01b0319166001600160a01b0385161790556002829055600362000095828262000293565b505050506200035f565b600080546001600160a01b038381166001600160a01b0319831681178455604051919092169283917f8be0079c531659141344cd1fd0a4f28419497f9722a3daafe3b4186f6b6457e09190a35050565b634e487b7160e01b600052604160045260246000fd5b6000806000606084860312156200011b57600080fd5b83516001600160a01b03811681146200013357600080fd5b60208581015160408701519295509350906001600160401b03808211156200015a57600080fd5b818701915087601f8301126200016f57600080fd5b815181811115620001845762000184620000ef565b604051601f8201601f19908116603f01168101908382118183101715620001af57620001af620000ef565b816040528281528a86848701011115620001c857600080fd5b600093505b82841015620001ec5784840186015181850187015292850192620001cd565b60008684830101528096505050505050509250925092565b600181811c908216806200021957607f821691505b6020821081036200023a57634e487b7160e01b600052602260045260246000fd5b50919050565b601f8211156200028e57600081815260208120601f850160051c81016020861015620002695750805b601f850160051c820191505b818110156200028a5782815560010162000275565b5050505b505050565b81516001600160401b03811115620002af57620002af620000ef565b620002c781620002c0845462000204565b8462000240565b602080601f831160018114620002ff5760008415620002e65750858301515b600019600386901b1c1916600185901b1785556200028a565b600085815260208120601f198616915b8281101562000330578886015182559484019460019091019084016200030f565b50858210156200034f5787850151600019600388901b60f8161c191681555b5050505050600190811b01905550565b610b33806200036f6000396000f3fe608060405234801561001057600080fd5b50600436106100a95760003560e01c80638e78d578116100715780638e78d57814610125578063965306aa14610138578063f0cb39251461015b578063f2f35ff51461018f578063f2fde38b146101a2578063f3068a00146101b557600080fd5b806348136c97146100ae57806363996b66146100cc578063715018a6146100df5780637b103999146100e95780638da5cb5b14610114575b600080fd5b6100b66101cc565b6040516100c3919061069a565b60405180910390f35b6100b66100da3660046106b4565b61025a565b6100e7610273565b005b6001546100fc906001600160a01b031681565b6040516001600160a01b0390911681526020016100c3565b6000546001600160a01b03166100fc565b6100b66101333660046106dd565b610287565b61014b6101463660046106dd565b61045d565b60405190151581526020016100c3565b6100fc610169366004610765565b80516020818301810180516004825292820191909301209152546001600160a01b031681565b6100b661019d3660046106b4565b61049d565b6100e76101b03660046106b4565b61058f565b6101be60025481565b6040519081526020016100c3565b600380546101d990610816565b80601f016020809104026020016040519081016040528092919081815260200182805461020590610816565b80156102525780601f1061022757610100808354040283529160200191610252565b820191906000526020600020905b81548152906001019060200180831161023557829003601f168201915b505050505081565b600560205260009081526040902080546101d990610816565b61027b6105cd565b61028560006105fa565b565b6060610293838361045d565b6102dc5760405162461bcd60e51b815260206004820152601560248201527429bab13730b6b29030b63932b0b23c903a30b5b2b760591b60448201526064015b60405180910390fd5b33600484846040516102ef929190610850565b908152604080516020928190038301902080546001600160a01b0319166001600160a01b0394909416939093179092553360009081526005909152206103368385836108af565b506001546002546001600160a01b0390911690638bf9baba90858533600060405190808252806020026020018201604052801561038757816020015b60608152602001906001900390816103725790505b506040518663ffffffff1660e01b81526004016103a8959493929190610970565b6020604051808303816000875af11580156103c7573d6000803e3d6000fd5b505050506040513d601f19601f820116820180604052508101906103eb9190610a17565b5060008383600360405160200161040493929190610aa3565b6040516020818303038152906040529050336001600160a01b03167fd6c63362dc701a126f9dcf34485680e4a33bddce503b41a1ac19ca10b4e794348260405161044e919061069a565b60405180910390a29392505050565b6000806001600160a01b03166004848460405161047b929190610850565b908152604051908190036020019020546001600160a01b031614905092915050565b6001600160a01b0381166000908152600560205260408120805460609291906104c590610816565b80601f01602080910402602001604051908101604052809291908181526020018280546104f190610816565b801561053e5780601f106105135761010080835404028352916020019161053e565b820191906000526020600020905b81548152906001019060200180831161052157829003601f168201915b505050505090508051600003610564575050604080516020810190915260008152919050565b806003604051602001610578929190610aca565b604051602081830303815290604052915050919050565b6105976105cd565b6001600160a01b0381166105c157604051631e4fbdf760e01b8152600060048201526024016102d3565b6105ca816105fa565b50565b6000546001600160a01b031633146102855760405163118cdaa760e01b81523360048201526024016102d3565b600080546001600160a01b038381166001600160a01b0319831681178455604051919092169283917f8be0079c531659141344cd1fd0a4f28419497f9722a3daafe3b4186f6b6457e09190a35050565b60005b8381101561066557818101518382015260200161064d565b50506000910152565b6000815180845261068681602086016020860161064a565b601f01601f19169290920160200192915050565b6020815260006106ad602083018461066e565b9392505050565b6000602082840312156106c657600080fd5b81356001600160a01b03811681146106ad57600080fd5b600080602083850312156106f057600080fd5b823567ffffffffffffffff8082111561070857600080fd5b818501915085601f83011261071c57600080fd5b81358181111561072b57600080fd5b86602082850101111561073d57600080fd5b60209290920196919550909350505050565b634e487b7160e01b600052604160045260246000fd5b60006020828403121561077757600080fd5b813567ffffffffffffffff8082111561078f57600080fd5b818401915084601f8301126107a357600080fd5b8135818111156107b5576107b561074f565b604051601f8201601f19908116603f011681019083821181831017156107dd576107dd61074f565b816040528281528760208487010111156107f657600080fd5b826020860160208301376000928101602001929092525095945050505050565b600181811c9082168061082a57607f821691505b60208210810361084a57634e487b7160e01b600052602260045260246000fd5b50919050565b8183823760009101908152919050565b601f8211156108aa57600081815260208120601f850160051c810160208610156108875750805b601f850160051c820191505b818110156108a657828155600101610893565b5050505b505050565b67ffffffffffffffff8311156108c7576108c761074f565b6108db836108d58354610816565b83610860565b6000601f84116001811461090f57600085156108f75750838201355b600019600387901b1c1916600186901b178355610969565b600083815260209020601f19861690835b828110156109405786850135825560209485019460019092019101610920565b508682101561095d5760001960f88860031b161c19848701351681555b505060018560011b0183555b5050505050565b85815260006020608081840152856080840152858760a0850137600060a08785010152601f19601f870116830160a0810160018060a01b038716604086015260a085830301606086015280865180835260c08401915060c08160051b850101925084880160005b82811015610a055760bf198686030184526109f385835161066e565b945092860192908601906001016109d7565b50929c9b505050505050505050505050565b600060208284031215610a2957600080fd5b5051919050565b60008154610a3d81610816565b60018281168015610a555760018114610a6a57610a99565b60ff1984168752821515830287019450610a99565b8560005260208060002060005b85811015610a905781548a820152908401908201610a77565b50505082870194505b5050505092915050565b828482376000838201601760f91b8152610ac06001820185610a30565b9695505050505050565b60008351610adc81846020880161064a565b601760f91b908301908152610af46001820185610a30565b9594505050505056fea2646970667358221220e8d6d8de21965e662b6664a5e7a58fb65671939f70696e5d3883328c50ea90df64736f6c63430008140033",
  "devdoc": {
    "errors": {
      "OwnableInvalidOwner(address)": [
        {
          "details": "The owner is not a valid owner account. (eg. `address(0)`)"
        }
      ],
      "OwnableUnauthorizedAccount(address)": [
        {
          "details": "The caller account is not authorized to perform an operation."
        }
      ]
    },
    "kind": "dev",
    "methods": {
      "owner()": {
        "details": "Returns the address of the current owner."
      },
      "renounceOwnership()": {
        "details": "Leaves the contract without owner. It will not be possible to call `onlyOwner` functions. Can only be called by the current owner. NOTE: Renouncing ownership will leave the contract without an owner, thereby disabling any functionality that is only available to the owner."
      },
      "transferOwnership(address)": {
        "details": "Transfers ownership of the contract to a new account (`newOwner`). Can only be called by the current owner."
      }
    },
    "version": 1
  },
  "userdoc": {
    "kind": "user",
    "methods": {
      "getFullName(address)": {
        "notice": "Get full ENS name for a user "
      },
      "isAvailable(string)": {
        "notice": "Check if a subname is available "
      },
      "registerSubname(string)": {
        "notice": "Register a free subname under the parent domain "
      }
    },
    "version": 1
  },
  "storageLayout": {
    "storage": [
      {
        "astId": 143,
        "contract": "contracts/EnsManager.sol:ENSManagerL2",
        "label": "_owner",
        "offset": 0,
        "slot": "0",
        "type": "t_address"
      },
      {
        "astId": 455,
        "contract": "contracts/EnsManager.sol:ENSManagerL2",
        "label": "registry",
        "offset": 0,
        "slot": "1",
        "type": "t_contract(IL2Registry)725"
      },
      {
        "astId": 457,
        "contract": "contracts/EnsManager.sol:ENSManagerL2",
        "label": "parentNode",
        "offset": 0,
        "slot": "2",
        "type": "t_bytes32"
      },
      {
        "astId": 459,
        "contract": "contracts/EnsManager.sol:ENSManagerL2",
        "label": "baseDomain",
        "offset": 0,
        "slot": "3",
        "type": "t_string_storage"
      },
      {
        "astId": 463,
        "contract": "contracts/EnsManager.sol:ENSManagerL2",
        "label": "subnameOwners",
        "offset": 0,
        "slot": "4",
        "type": "t_mapping(t_string_memory_ptr,t_address)"
      },
      {
        "astId": 467,
        "contract": "contracts/EnsManager.sol:ENSManagerL2",
        "label": "addressToSubname",
        "offset": 0,
        "slot": "5",
        "type": "t_mapping(t_address,t_string_storage)"
      }
    ],
    "types": {
      "t_address": {
        "encoding": "inplace",
        "label": "address",
        "numberOfBytes": "20"
      },
      "t_bytes32": {
        "encoding": "inplace",
        "label": "bytes32",
        "numberOfBytes": "32"
      },
      "t_contract(IL2Registry)725": {
        "encoding": "inplace",
        "label": "contract IL2Registry",
        "numberOfBytes": "20"
      },
      "t_mapping(t_address,t_string_storage)": {
        "encoding": "mapping",
        "key": "t_address",
        "label": "mapping(address => string)",
        "numberOfBytes": "32",
        "value": "t_string_storage"
      },
      "t_mapping(t_string_memory_ptr,t_address)": {
        "encoding": "mapping",
        "key": "t_string_memory_ptr",
        "label": "mapping(string => address)",
        "numberOfBytes": "32",
        "value": "t_address"
      },
      "t_string_memory_ptr": {
        "encoding": "bytes",
        "label": "string",
        "numberOfBytes": "32"
      },
      "t_string_storage": {
        "encoding": "bytes",
        "label": "string",
        "numberOfBytes": "32"
      }
    }
  }
}