{
  "address": "0x0532c1B35a566A15C1eD3014bA32E463b7428B04",
  "abi": [
    {
      "inputs": [
        {
          "internalType": "address",
          "name": "_coreToken",
          "type": "address"
        },
        {
          "internalType": "address",
          "name": "_profileContract",
          "type": "address"
        }
      ],
      "stateMutability": "nonpayable",
      "type": "constructor"
    },
    {
      "inputs": [
        {
          "internalType": "address",
          "name": "owner",
          "type": "address"
        }
      ],
      "name": "OwnableInvalidOwner",
      "type": "error"
    },
    {
      "inputs": [
        {
          "internalType": "address",
          "name": "account",
          "type": "address"
        }
      ],
      "name": "OwnableUnauthorizedAccount",
      "type": "error"
    },
    {
      "anonymous": false,
      "inputs": [
        {
          "indexed": true,
          "internalType": "uint256",
          "name": "jobId",
          "type": "uint256"
        },
        {
          "indexed": true,
          "internalType": "address",
          "name": "worker",
          "type": "address"
        }
      ],
      "name": "JobAssigned",
      "type": "event"
    },
    {
      "anonymous": false,
      "inputs": [
        {
          "indexed": true,
          "internalType": "uint256",
          "name": "jobId",
          "type": "uint256"
        }
      ],
      "name": "JobCancelled",
      "type": "event"
    },
    {
      "anonymous": false,
      "inputs": [
        {
          "indexed": true,
          "internalType": "uint256",
          "name": "jobId",
          "type": "uint256"
        },
        {
          "indexed": true,
          "internalType": "address",
          "name": "worker",
          "type": "address"
        }
      ],
      "name": "JobCompleted",
      "type": "event"
    },
    {
      "anonymous": false,
      "inputs": [
        {
          "indexed": true,
          "internalType": "uint256",
          "name": "jobId",
          "type": "uint256"
        },
        {
          "indexed": true,
          "internalType": "address",
          "name": "client",
          "type": "address"
        },
        {
          "indexed": false,
          "internalType": "uint256",
          "name": "budget",
          "type": "uint256"
        }
      ],
      "name": "JobCreated",
      "type": "event"
    },
    {
      "anonymous": false,
      "inputs": [
        {
          "indexed": true,
          "internalType": "address",
          "name": "previousOwner",
          "type": "address"
        },
        {
          "indexed": true,
          "internalType": "address",
          "name": "newOwner",
          "type": "address"
        }
      ],
      "name": "OwnershipTransferred",
      "type": "event"
    },
    {
      "inputs": [
        {
          "internalType": "uint256",
          "name": "jobId",
          "type": "uint256"
        }
      ],
      "name": "acceptJob",
      "outputs": [],
      "stateMutability": "nonpayable",
      "type": "function"
    },
    {
      "inputs": [
        {
          "internalType": "uint256",
          "name": "jobId",
          "type": "uint256"
        }
      ],
      "name": "cancelJob",
      "outputs": [],
      "stateMutability": "nonpayable",
      "type": "function"
    },
    {
      "inputs": [
        {
          "internalType": "uint256",
          "name": "jobId",
          "type": "uint256"
        }
      ],
      "name": "completeJob",
      "outputs": [],
      "stateMutability": "nonpayable",
      "type": "function"
    },
    {
      "inputs": [],
      "name": "coreToken",
      "outputs": [
        {
          "internalType": "contract IERC20",
          "name": "",
          "type": "address"
        }
      ],
      "stateMutability": "view",
      "type": "function"
    },
    {
      "inputs": [
        {
          "internalType": "string",
          "name": "title",
          "type": "string"
        },
        {
          "internalType": "string",
          "name": "metadataURI",
          "type": "string"
        },
        {
          "internalType": "uint256",
          "name": "budget",
          "type": "uint256"
        },
        {
          "internalType": "uint256",
          "name": "deadline",
          "type": "uint256"
        }
      ],
      "name": "createJob",
      "outputs": [],
      "stateMutability": "nonpayable",
      "type": "function"
    },
    {
      "inputs": [],
      "name": "getAllJobs",
      "outputs": [
        {
          "components": [
            {
              "internalType": "uint256",
              "name": "id",
              "type": "uint256"
            },
            {
              "internalType": "address",
              "name": "client",
              "type": "address"
            },
            {
              "internalType": "address",
              "name": "worker",
              "type": "address"
            },
            {
              "internalType": "string",
              "name": "title",
              "type": "string"
            },
            {
              "internalType": "string",
              "name": "metadataURI",
              "type": "string"
            },
            {
              "internalType": "uint256",
              "name": "budget",
              "type": "uint256"
            },
            {
              "internalType": "uint256",
              "name": "deadline",
              "type": "uint256"
            },
            {
              "internalType": "enum JobFactory.JobStatus",
              "name": "status",
              "type": "uint8"
            }
          ],
          "internalType": "struct JobFactory.Job[]",
          "name": "",
          "type": "tuple[]"
        }
      ],
      "stateMutability": "view",
      "type": "function"
    },
    {
      "inputs": [
        {
          "internalType": "uint256",
          "name": "jobId",
          "type": "uint256"
        }
      ],
      "name": "getJob",
      "outputs": [
        {
          "components": [
            {
              "internalType": "uint256",
              "name": "id",
              "type": "uint256"
            },
            {
              "internalType": "address",
              "name": "client",
              "type": "address"
            },
            {
              "internalType": "address",
              "name": "worker",
              "type": "address"
            },
            {
              "internalType": "string",
              "name": "title",
              "type": "string"
            },
            {
              "internalType": "string",
              "name": "metadataURI",
              "type": "string"
            },
            {
              "internalType": "uint256",
              "name": "budget",
              "type": "uint256"
            },
            {
              "internalType": "uint256",
              "name": "deadline",
              "type": "uint256"
            },
            {
              "internalType": "enum JobFactory.JobStatus",
              "name": "status",
              "type": "uint8"
            }
          ],
          "internalType": "struct JobFactory.Job",
          "name": "",
          "type": "tuple"
        }
      ],
      "stateMutability": "view",
      "type": "function"
    },
    {
      "inputs": [],
      "name": "getOpenJobs",
      "outputs": [
        {
          "components": [
            {
              "internalType": "uint256",
              "name": "id",
              "type": "uint256"
            },
            {
              "internalType": "address",
              "name": "client",
              "type": "address"
            },
            {
              "internalType": "address",
              "name": "worker",
              "type": "address"
            },
            {
              "internalType": "string",
              "name": "title",
              "type": "string"
            },
            {
              "internalType": "string",
              "name": "metadataURI",
              "type": "string"
            },
            {
              "internalType": "uint256",
              "name": "budget",
              "type": "uint256"
            },
            {
              "internalType": "uint256",
              "name": "deadline",
              "type": "uint256"
            },
            {
              "internalType": "enum JobFactory.JobStatus",
              "name": "status",
              "type": "uint8"
            }
          ],
          "internalType": "struct JobFactory.Job[]",
          "name": "",
          "type": "tuple[]"
        }
      ],
      "stateMutability": "view",
      "type": "function"
    },
    {
      "inputs": [],
      "name": "jobCount",
      "outputs": [
        {
          "internalType": "uint256",
          "name": "",
          "type": "uint256"
        }
      ],
      "stateMutability": "view",
      "type": "function"
    },
    {
      "inputs": [
        {
          "internalType": "uint256",
          "name": "",
          "type": "uint256"
        }
      ],
      "name": "jobs",
      "outputs": [
        {
          "internalType": "uint256",
          "name": "id",
          "type": "uint256"
        },
        {
          "internalType": "address",
          "name": "client",
          "type": "address"
        },
        {
          "internalType": "address",
          "name": "worker",
          "type": "address"
        },
        {
          "internalType": "string",
          "name": "title",
          "type": "string"
        },
        {
          "internalType": "string",
          "name": "metadataURI",
          "type": "string"
        },
        {
          "internalType": "uint256",
          "name": "budget",
          "type": "uint256"
        },
        {
          "internalType": "uint256",
          "name": "deadline",
          "type": "uint256"
        },
        {
          "internalType": "enum JobFactory.JobStatus",
          "name": "status",
          "type": "uint8"
        }
      ],
      "stateMutability": "view",
      "type": "function"
    },
    {
      "inputs": [],
      "name": "owner",
      "outputs": [
        {
          "internalType": "address",
          "name": "",
          "type": "address"
        }
      ],
      "stateMutability": "view",
      "type": "function"
    },
    {
      "inputs": [],
      "name": "profileContract",
      "outputs": [
        {
          "internalType": "contract IProfile",
          "name": "",
          "type": "address"
        }
      ],
      "stateMutability": "view",
      "type": "function"
    },
    {
      "inputs": [],
      "name": "renounceOwnership",
      "outputs": [],
      "stateMutability": "nonpayable",
      "type": "function"
    },
    {
      "inputs": [
        {
          "internalType": "address",
          "name": "newOwner",
          "type": "address"
        }
      ],
      "name": "transferOwnership",
      "outputs": [],
      "stateMutability": "nonpayable",
      "type": "function"
    }
  ],
  "transactionHash": "0xf8a91d0df5aa61263ccbe92cf3c8ff2c7e1474344f7caf96edc4754bd777db35",
  "args": [
    "0xb5d8887AB09AdB5983AACEed4e1AbB9267407823",
    "0x565A99925AEd5b53F363EBB5BfE268bBD8d414fe"
  ],
  "numDeployments": 2,
  "solcInputHash": "4aaf17a2e5653f6f81910f49747fff28",
  "bytecode": "0x60806040523480156200001157600080fd5b5060405162001c3d38038062001c3d833981016040819052620000349162000106565b33806200005b57604051631e4fbdf760e01b81526000600482015260240160405180910390fd5b620000668162000099565b50600180546001600160a01b039384166001600160a01b031991821617909155600280549290931691161790556200013e565b600080546001600160a01b038381166001600160a01b0319831681178455604051919092169283917f8be0079c531659141344cd1fd0a4f28419497f9722a3daafe3b4186f6b6457e09190a35050565b80516001600160a01b03811681146200010157600080fd5b919050565b600080604083850312156200011a57600080fd5b6200012583620000e9565b91506200013560208401620000e9565b90509250929050565b611aef806200014e6000396000f3fe608060405234801561001057600080fd5b50600436106100ea5760003560e01c8063715018a61161008c578063a1c0d32f11610066578063a1c0d32f146101ce578063a3974b21146101e1578063bf22c457146101f4578063f2fde38b1461021457600080fd5b8063715018a6146101ad5780638da5cb5b146101b5578063965a79fb146101c657600080fd5b80631dffa3dc116100c85780631dffa3dc1461015b5780632042ba3a146101705780634c5d8a0f1461018357806363b2f3c91461019a57600080fd5b80630c2b72e9146100ef5780631321c95e1461011f578063180aedf314610134575b600080fd5b600154610102906001600160a01b031681565b6040516001600160a01b0390911681526020015b60405180910390f35b610127610227565b60405161011691906115ab565b61014761014236600461160d565b610512565b604051610116989796959493929190611626565b61016e61016936600461160d565b610676565b005b61016e61017e3660046116df565b610834565b61018c60035481565b604051908152602001610116565b61016e6101a836600461160d565b610b45565b61016e610d21565b6000546001600160a01b0316610102565b610127610d35565b61016e6101dc36600461160d565b610f93565b600254610102906001600160a01b031681565b61020761020236600461160d565b611161565b604051610116919061175d565b61016e61022236600461178c565b611374565b6060600060015b60035481116102825760008181526004602052604081206007015460ff16600381111561025d5761025d6114e6565b03610270578161026c816117bf565b9250505b8061027a816117bf565b91505061022e565b5060008167ffffffffffffffff81111561029e5761029e6117d8565b6040519080825280602002602001820160405280156102d757816020015b6102c461142f565b8152602001906001900390816102bc5790505b509050600060015b60035481116105095760008181526004602052604081206007015460ff16600381111561030e5761030e6114e6565b036104f7576000818152600460209081526040918290208251610100810184528154815260018201546001600160a01b0390811693820193909352600282015490921692820192909252600382018054919291606084019190610370906117ee565b80601f016020809104026020016040519081016040528092919081815260200182805461039c906117ee565b80156103e95780601f106103be576101008083540402835291602001916103e9565b820191906000526020600020905b8154815290600101906020018083116103cc57829003601f168201915b50505050508152602001600482018054610402906117ee565b80601f016020809104026020016040519081016040528092919081815260200182805461042e906117ee565b801561047b5780601f106104505761010080835404028352916020019161047b565b820191906000526020600020905b81548152906001019060200180831161045e57829003601f168201915b50505091835250506005820154602082015260068201546040820152600782015460609091019060ff1660038111156104b6576104b66114e6565b60038111156104c7576104c76114e6565b815250508383815181106104dd576104dd611822565b602002602001018190525081806104f3906117bf565b9250505b80610501816117bf565b9150506102df565b50909392505050565b600460205260009081526040902080546001820154600283015460038401805493946001600160a01b0393841694939092169261054e906117ee565b80601f016020809104026020016040519081016040528092919081815260200182805461057a906117ee565b80156105c75780601f1061059c576101008083540402835291602001916105c7565b820191906000526020600020905b8154815290600101906020018083116105aa57829003601f168201915b5050505050908060040180546105dc906117ee565b80601f0160208091040260200160405190810160405280929190818152602001828054610608906117ee565b80156106555780601f1061062a57610100808354040283529160200191610655565b820191906000526020600020905b81548152906001019060200180831161063857829003601f168201915b50505050600583015460068401546007909401549293909290915060ff1688565b600081815260046020526040812090600782015460ff16600381111561069e5761069e6114e6565b146106df5760405162461bcd60e51b815260206004820152600c60248201526b2537b1103737ba1037b832b760a11b60448201526064015b60405180910390fd5b60018101546001600160a01b031633146107345760405162461bcd60e51b815260206004820152601660248201527513db9b1e4818db1a595b9d0818d85b8818d85b98d95b60521b60448201526064016106d6565b60078101805460ff191660031790556005810154600180830154905460405163a9059cbb60e01b81526001600160a01b039283166004820181905260248201859052929091169063a9059cbb906044016020604051808303816000875af11580156107a3573d6000803e3d6000fd5b505050506040513d601f19601f820116820180604052508101906107c7919061184d565b6108035760405162461bcd60e51b815260206004820152600d60248201526c1499599d5b990819985a5b1959609a1b60448201526064016106d6565b60405184907f58243f872c550ad02802199ade99eb4250f6bb19e9abbf2d3de7b969c0eb5e4f90600090a250505050565b600082116108755760405162461bcd60e51b815260206004820152600e60248201526d125b9d985b1a5908189d5919d95d60921b60448201526064016106d6565b4281116108c45760405162461bcd60e51b815260206004820152601760248201527f446561646c696e65206d7573742062652066757475726500000000000000000060448201526064016106d6565b6001546040516323b872dd60e01b8152336004820152306024820152604481018490526001600160a01b03909116906323b872dd906064016020604051808303816000875af115801561091b573d6000803e3d6000fd5b505050506040513d601f19601f8201168201806040525081019061093f919061184d565b61097c5760405162461bcd60e51b815260206004820152600e60248201526d119d5b991a5b99c819985a5b195960921b60448201526064016106d6565b6003805490600061098c836117bf565b91905055506040518061010001604052806003548152602001336001600160a01b0316815260200160006001600160a01b0316815260200187878080601f016020809104026020016040519081016040528093929190818152602001838380828437600092019190915250505090825250604080516020601f880181900481028201810190925286815291810191908790879081908401838280828437600092018290525093855250505060208201859052604082018490526060909101526003805460009081526004602090815260409182902084518155908401516001820180546001600160a01b03199081166001600160a01b03938416179091559285015160028301805490941691161790915560608301519091820190610ab190826118b7565b5060808201516004820190610ac690826118b7565b5060a0820151600582015560c0820151600682015560e082015160078201805460ff19166001836003811115610afe57610afe6114e6565b0217905550506003546040518481523392507f8678ba2d99dba901dafc51009f8d402d37a5a0275752cf0e263b827aeca906f29060200160405180910390a3505050505050565b600081815260046020526040812090600782015460ff166003811115610b6d57610b6d6114e6565b14610ba95760405162461bcd60e51b815260206004820152600c60248201526b2537b1103737ba1037b832b760a11b60448201526064016106d6565b6001810154336001600160a01b0390911603610c075760405162461bcd60e51b815260206004820152601a60248201527f436c69656e742063616e6e6f742074616b65206f776e206a6f6200000000000060448201526064016106d6565b60025460405162f53a4760e41b81523360048201526000916001600160a01b031690630f53a47090602401600060405180830381865afa158015610c4f573d6000803e3d6000fd5b505050506040513d6000823e601f3d908101601f19168201604052610c7791908101906119ff565b5050935050505080610ccb5760405162461bcd60e51b815260206004820152601860248201527f576f726b6572206d75737420686176652070726f66696c65000000000000000060448201526064016106d6565b6002820180546001600160a01b0319163390811790915560078301805460ff1916600117905560405184907f3738a681a43a0b6a554742a08bae57e0215e8a774217dc2e7de6c9411b6d0ddc90600090a3505050565b610d296113b2565b610d3360006113df565b565b6060600060035467ffffffffffffffff811115610d5457610d546117d8565b604051908082528060200260200182016040528015610d8d57816020015b610d7a61142f565b815260200190600190039081610d725790505b50905060015b6003548111610f8d576000818152600460209081526040918290208251610100810184528154815260018201546001600160a01b0390811693820193909352600282015490921692820192909252600382018054919291606084019190610df9906117ee565b80601f0160208091040260200160405190810160405280929190818152602001828054610e25906117ee565b8015610e725780601f10610e4757610100808354040283529160200191610e72565b820191906000526020600020905b815481529060010190602001808311610e5557829003601f168201915b50505050508152602001600482018054610e8b906117ee565b80601f0160208091040260200160405190810160405280929190818152602001828054610eb7906117ee565b8015610f045780601f10610ed957610100808354040283529160200191610f04565b820191906000526020600020905b815481529060010190602001808311610ee757829003601f168201915b50505091835250506005820154602082015260068201546040820152600782015460609091019060ff166003811115610f3f57610f3f6114e6565b6003811115610f5057610f506114e6565b90525082610f5f600184611aa0565b81518110610f6f57610f6f611822565b60200260200101819052508080610f85906117bf565b915050610d93565b50919050565b60008181526004602052604090206001600782015460ff166003811115610fbc57610fbc6114e6565b14610ff85760405162461bcd60e51b815260206004820152600c60248201526b139bdd08185cdcda59db995960a21b60448201526064016106d6565b60018101546001600160a01b031633146110545760405162461bcd60e51b815260206004820152601860248201527f4f6e6c7920636c69656e742063616e20636f6d706c657465000000000000000060448201526064016106d6565b60078101805460ff19166002908117909155810154600582015460015460405163a9059cbb60e01b81526001600160a01b039384166004820181905260248201849052939091169063a9059cbb906044016020604051808303816000875af11580156110c4573d6000803e3d6000fd5b505050506040513d601f19601f820116820180604052508101906110e8919061184d565b6111255760405162461bcd60e51b815260206004820152600e60248201526d14185e5b595b9d0819985a5b195960921b60448201526064016106d6565b6040516001600160a01b0383169085907f16a7286196330eaff0c7db2ec34ead9c6d2d023b356b62ee7ea644c842a84b6790600090a350505050565b61116961142f565b60008211801561117b57506003548211155b6111b75760405162461bcd60e51b815260206004820152600d60248201526c125b9d985b1a59081a9bd89259609a1b60448201526064016106d6565b6000828152600460209081526040918290208251610100810184528154815260018201546001600160a01b0390811693820193909352600282015490921692820192909252600382018054919291606084019190611214906117ee565b80601f0160208091040260200160405190810160405280929190818152602001828054611240906117ee565b801561128d5780601f106112625761010080835404028352916020019161128d565b820191906000526020600020905b81548152906001019060200180831161127057829003601f168201915b505050505081526020016004820180546112a6906117ee565b80601f01602080910402602001604051908101604052809291908181526020018280546112d2906117ee565b801561131f5780601f106112f45761010080835404028352916020019161131f565b820191906000526020600020905b81548152906001019060200180831161130257829003601f168201915b50505091835250506005820154602082015260068201546040820152600782015460609091019060ff16600381111561135a5761135a6114e6565b600381111561136b5761136b6114e6565b90525092915050565b61137c6113b2565b6001600160a01b0381166113a657604051631e4fbdf760e01b8152600060048201526024016106d6565b6113af816113df565b50565b6000546001600160a01b03163314610d335760405163118cdaa760e01b81523360048201526024016106d6565b600080546001600160a01b038381166001600160a01b0319831681178455604051919092169283917f8be0079c531659141344cd1fd0a4f28419497f9722a3daafe3b4186f6b6457e09190a35050565b6040518061010001604052806000815260200160006001600160a01b0316815260200160006001600160a01b031681526020016060815260200160608152602001600081526020016000815260200160006003811115611491576114916114e6565b905290565b60005b838110156114b1578181015183820152602001611499565b50506000910152565b600081518084526114d2816020860160208601611496565b601f01601f19169290920160200192915050565b634e487b7160e01b600052602160045260246000fd5b6004811061151a57634e487b7160e01b600052602160045260246000fd5b9052565b600061010082518452602083015160018060a01b03808216602087015280604086015116604087015250506060830151816060860152611560828601826114ba565b9150506080830151848203608086015261157a82826114ba565b91505060a083015160a085015260c083015160c085015260e08301516115a360e08601826114fc565b509392505050565b6000602080830181845280855180835260408601915060408160051b870101925083870160005b8281101561160057603f198886030184526115ee85835161151e565b945092850192908501906001016115d2565b5092979650505050505050565b60006020828403121561161f57600080fd5b5035919050565b8881526001600160a01b0388811660208301528716604082015261010060608201819052600090611659838201896114ba565b9050828103608084015261166d81886114ba565b9150508460a08301528360c083015261168960e08301846114fc565b9998505050505050505050565b60008083601f8401126116a857600080fd5b50813567ffffffffffffffff8111156116c057600080fd5b6020830191508360208285010111156116d857600080fd5b9250929050565b600080600080600080608087890312156116f857600080fd5b863567ffffffffffffffff8082111561171057600080fd5b61171c8a838b01611696565b9098509650602089013591508082111561173557600080fd5b5061174289828a01611696565b979a9699509760408101359660609091013595509350505050565b602081526000611770602083018461151e565b9392505050565b6001600160a01b03811681146113af57600080fd5b60006020828403121561179e57600080fd5b813561177081611777565b634e487b7160e01b600052601160045260246000fd5b6000600182016117d1576117d16117a9565b5060010190565b634e487b7160e01b600052604160045260246000fd5b600181811c9082168061180257607f821691505b602082108103610f8d57634e487b7160e01b600052602260045260246000fd5b634e487b7160e01b600052603260045260246000fd5b8051801515811461184857600080fd5b919050565b60006020828403121561185f57600080fd5b61177082611838565b601f8211156118b257600081815260208120601f850160051c8101602086101561188f5750805b601f850160051c820191505b818110156118ae5782815560010161189b565b5050505b505050565b815167ffffffffffffffff8111156118d1576118d16117d8565b6118e5816118df84546117ee565b84611868565b602080601f83116001811461191a57600084156119025750858301515b600019600386901b1c1916600185901b1785556118ae565b600085815260208120601f198616915b828110156119495788860151825594840194600190910190840161192a565b50858210156119675787850151600019600388901b60f8161c191681555b5050505050600190811b01905550565b600082601f83011261198857600080fd5b815167ffffffffffffffff808211156119a3576119a36117d8565b604051601f8301601f19908116603f011681019082821181831017156119cb576119cb6117d8565b816040528381528660208588010111156119e457600080fd5b6119f5846020830160208901611496565b9695505050505050565b60008060008060008060c08789031215611a1857600080fd5b8651611a2381611777565b602088015190965067ffffffffffffffff80821115611a4157600080fd5b611a4d8a838b01611977565b96506040890151915080821115611a6357600080fd5b50611a7089828a01611977565b945050611a7f60608801611838565b9250611a8d60808801611838565b915060a087015190509295509295509295565b81810381811115611ab357611ab36117a9565b9291505056fea26469706673582212207f8a3e9320ddc700126afdd366766624ba5f9f9e31ef0be4a3e1955871a47cf664736f6c63430008140033",
  "devdoc": {
    "errors": {
      "OwnableInvalidOwner(address)": [
        {
          "details": "The owner is not a valid owner account. (eg. `address(0)`)"
        }
      ],
      "OwnableUnauthorizedAccount(address)": [
        {
          "details": "The caller account is not authorized to perform an operation."
        }
      ]
    },
    "kind": "dev",
    "methods": {
      "owner()": {
        "details": "Returns the address of the current owner."
      },
      "renounceOwnership()": {
        "details": "Leaves the contract without owner. It will not be possible to call `onlyOwner` functions. Can only be called by the current owner. NOTE: Renouncing ownership will leave the contract without an owner, thereby disabling any functionality that is only available to the owner."
      },
      "transferOwnership(address)": {
        "details": "Transfers ownership of the contract to a new account (`newOwner`). Can only be called by the current owner."
      }
    },
    "version": 1
  },
  "userdoc": {
    "kind": "user",
    "methods": {
      "acceptJob(uint256)": {
        "notice": "Worker accepts job"
      },
      "cancelJob(uint256)": {
        "notice": "Client cancels before worker accepts"
      },
      "completeJob(uint256)": {
        "notice": "Client marks job as completed  releases payment"
      },
      "createJob(string,string,uint256,uint256)": {
        "notice": "Client posts a job with budget locked in escrow"
      }
    },
    "version": 1
  },
  "storageLayout": {
    "storage": [
      {
        "astId": 8,
        "contract": "contracts/JobFactory.sol:JobFactory",
        "label": "_owner",
        "offset": 0,
        "slot": "0",
        "type": "t_address"
      },
      {
        "astId": 500,
        "contract": "contracts/JobFactory.sol:JobFactory",
        "label": "coreToken",
        "offset": 0,
        "slot": "1",
        "type": "t_contract(IERC20)225"
      },
      {
        "astId": 503,
        "contract": "contracts/JobFactory.sol:JobFactory",
        "label": "profileContract",
        "offset": 0,
        "slot": "2",
        "type": "t_contract(IProfile)472"
      },
      {
        "astId": 505,
        "contract": "contracts/JobFactory.sol:JobFactory",
        "label": "jobCount",
        "offset": 0,
        "slot": "3",
        "type": "t_uint256"
      },
      {
        "astId": 510,
        "contract": "contracts/JobFactory.sol:JobFactory",
        "label": "jobs",
        "offset": 0,
        "slot": "4",
        "type": "t_mapping(t_uint256,t_struct(Job)497_storage)"
      }
    ],
    "types": {
      "t_address": {
        "encoding": "inplace",
        "label": "address",
        "numberOfBytes": "20"
      },
      "t_contract(IERC20)225": {
        "encoding": "inplace",
        "label": "contract IERC20",
        "numberOfBytes": "20"
      },
      "t_contract(IProfile)472": {
        "encoding": "inplace",
        "label": "contract IProfile",
        "numberOfBytes": "20"
      },
      "t_enum(JobStatus)479": {
        "encoding": "inplace",
        "label": "enum JobFactory.JobStatus",
        "numberOfBytes": "1"
      },
      "t_mapping(t_uint256,t_struct(Job)497_storage)": {
        "encoding": "mapping",
        "key": "t_uint256",
        "label": "mapping(uint256 => struct JobFactory.Job)",
        "numberOfBytes": "32",
        "value": "t_struct(Job)497_storage"
      },
      "t_string_storage": {
        "encoding": "bytes",
        "label": "string",
        "numberOfBytes": "32"
      },
      "t_struct(Job)497_storage": {
        "encoding": "inplace",
        "label": "struct JobFactory.Job",
        "members": [
          {
            "astId": 481,
            "contract": "contracts/JobFactory.sol:JobFactory",
            "label": "id",
            "offset": 0,
            "slot": "0",
            "type": "t_uint256"
          },
          {
            "astId": 483,
            "contract": "contracts/JobFactory.sol:JobFactory",
            "label": "client",
            "offset": 0,
            "slot": "1",
            "type": "t_address"
          },
          {
            "astId": 485,
            "contract": "contracts/JobFactory.sol:JobFactory",
            "label": "worker",
            "offset": 0,
            "slot": "2",
            "type": "t_address"
          },
          {
            "astId": 487,
            "contract": "contracts/JobFactory.sol:JobFactory",
            "label": "title",
            "offset": 0,
            "slot": "3",
            "type": "t_string_storage"
          },
          {
            "astId": 489,
            "contract": "contracts/JobFactory.sol:JobFactory",
            "label": "metadataURI",
            "offset": 0,
            "slot": "4",
            "type": "t_string_storage"
          },
          {
            "astId": 491,
            "contract": "contracts/JobFactory.sol:JobFactory",
            "label": "budget",
            "offset": 0,
            "slot": "5",
            "type": "t_uint256"
          },
          {
            "astId": 493,
            "contract": "contracts/JobFactory.sol:JobFactory",
            "label": "deadline",
            "offset": 0,
            "slot": "6",
            "type": "t_uint256"
          },
          {
            "astId": 496,
            "contract": "contracts/JobFactory.sol:JobFactory",
            "label": "status",
            "offset": 0,
            "slot": "7",
            "type": "t_enum(JobStatus)479"
          }
        ],
        "numberOfBytes": "256"
      },
      "t_uint256": {
        "encoding": "inplace",
        "label": "uint256",
        "numberOfBytes": "32"
      }
    }
  }
}